{"abi":[{"type":"function","name":"endorse","inputs":[{"name":"_to","type":"address","internalType":"address"},{"name":"_tags","type":"string[]","internalType":"string[]"},{"name":"_message","type":"string","internalType":"string"}],"outputs":[],"stateMutability":"nonpayable"},{"type":"function","name":"endorsements","inputs":[{"name":"","type":"address","internalType":"address"},{"name":"","type":"uint256","internalType":"uint256"}],"outputs":[{"name":"endorser","type":"address","internalType":"address"},{"name":"endorsed","type":"address","internalType":"address"},{"name":"message","type":"string","internalType":"string"},{"name":"timestamp","type":"uint256","internalType":"uint256"}],"stateMutability":"view"},{"type":"function","name":"getEndorsements","inputs":[{"name":"_user","type":"address","internalType":"address"}],"outputs":[{"name":"","type":"tuple[]","internalType":"struct CastCred.Endorsement[]","components":[{"name":"endorser","type":"address","internalType":"address"},{"name":"endorsed","type":"address","internalType":"address"},{"name":"tags","type":"string[]","internalType":"string[]"},{"name":"message","type":"string","internalType":"string"},{"name":"timestamp","type":"uint256","internalType":"uint256"}]}],"stateMutability":"view"},{"type":"event","name":"Endorsed","inputs":[{"name":"from","type":"address","indexed":true,"internalType":"address"},{"name":"to","type":"address","indexed":true,"internalType":"address"},{"name":"tags","type":"string[]","indexed":false,"internalType":"string[]"},{"name":"message","type":"string","indexed":false,"internalType":"string"},{"name":"time","type":"uint256","indexed":false,"internalType":"uint256"}],"anonymous":false}],"bytecode":{"object":"0x608060405234801561000f575f80fd5b506113b38061001d5f395ff3fe608060405234801561000f575f80fd5b506004361061003f575f3560e01c80632cdc9efb146100435780637aa9856214610076578063b666ca9d14610092575b5f80fd5b61005d600480360381019061005891906108b7565b6100c2565b60405161006d949392919061099d565b60405180910390f35b610090600480360381019061008b9190610bf5565b6101cb565b005b6100ac60048036038101906100a79190610c7d565b610498565b6040516100b99190610efe565b60405180910390f35b5f602052815f5260405f2081815481106100da575f80fd5b905f5260205f2090600502015f9150915050805f015f9054906101000a900473ffffffffffffffffffffffffffffffffffffffff1690806001015f9054906101000a900473ffffffffffffffffffffffffffffffffffffffff169080600301805461014490610f4b565b80601f016020809104026020016040519081016040528092919081815260200182805461017090610f4b565b80156101bb5780601f10610192576101008083540402835291602001916101bb565b820191905f5260205f20905b81548152906001019060200180831161019e57829003601f168201915b5050505050908060040154905084565b3373ffffffffffffffffffffffffffffffffffffffff168373ffffffffffffffffffffffffffffffffffffffff1603610239576040517f08c379a000000000000000000000000000000000000000000000000000000000815260040161023090610fc5565b60405180910390fd5b5f73ffffffffffffffffffffffffffffffffffffffff168373ffffffffffffffffffffffffffffffffffffffff16036102a7576040517f08c379a000000000000000000000000000000000000000000000000000000000815260040161029e9061102d565b60405180910390fd5b5f6040518060a001604052803373ffffffffffffffffffffffffffffffffffffffff1681526020018573ffffffffffffffffffffffffffffffffffffffff1681526020018481526020018381526020014281525090505f808573ffffffffffffffffffffffffffffffffffffffff1673ffffffffffffffffffffffffffffffffffffffff1681526020019081526020015f2081908060018154018082558091505060019003905f5260205f2090600502015f909190919091505f820151815f015f6101000a81548173ffffffffffffffffffffffffffffffffffffffff021916908373ffffffffffffffffffffffffffffffffffffffff1602179055506020820151816001015f6101000a81548173ffffffffffffffffffffffffffffffffffffffff021916908373ffffffffffffffffffffffffffffffffffffffff1602179055506040820151816002019080519060200190610406929190610747565b50606082015181600301908161041c91906111e8565b506080820151816004015550508373ffffffffffffffffffffffffffffffffffffffff163373ffffffffffffffffffffffffffffffffffffffff167fdf13b104c0ef68ebf28097d2ba95ddf815e42e5be77070bc5124920cc245e37385854260405161048a9392919061133a565b60405180910390a350505050565b60605f808373ffffffffffffffffffffffffffffffffffffffff1673ffffffffffffffffffffffffffffffffffffffff1681526020019081526020015f20805480602002602001604051908101604052809291908181526020015f905b8282101561073c578382905f5260205f2090600502016040518060a00160405290815f82015f9054906101000a900473ffffffffffffffffffffffffffffffffffffffff1673ffffffffffffffffffffffffffffffffffffffff1673ffffffffffffffffffffffffffffffffffffffff168152602001600182015f9054906101000a900473ffffffffffffffffffffffffffffffffffffffff1673ffffffffffffffffffffffffffffffffffffffff1673ffffffffffffffffffffffffffffffffffffffff16815260200160028201805480602002602001604051908101604052809291908181526020015f905b8282101561068b578382905f5260205f2001805461060090610f4b565b80601f016020809104026020016040519081016040528092919081815260200182805461062c90610f4b565b80156106775780601f1061064e57610100808354040283529160200191610677565b820191905f5260205f20905b81548152906001019060200180831161065a57829003601f168201915b5050505050815260200190600101906105e3565b5050505081526020016003820180546106a390610f4b565b80601f01602080910402602001604051908101604052809291908181526020018280546106cf90610f4b565b801561071a5780601f106106f15761010080835404028352916020019161071a565b820191905f5260205f20905b8154815290600101906020018083116106fd57829003601f168201915b50505050508152602001600482015481525050815260200190600101906104f5565b505050509050919050565b828054828255905f5260205f2090810192821561078d579160200282015b8281111561078c57825182908161077c91906111e8565b5091602001919060010190610765565b5b50905061079a919061079e565b5090565b5b808211156107bd575f81816107b491906107c1565b5060010161079f565b5090565b5080546107cd90610f4b565b5f825580601f106107de57506107fb565b601f0160209004905f5260205f20908101906107fa91906107fe565b5b50565b5b80821115610815575f815f9055506001016107ff565b5090565b5f604051905090565b5f80fd5b5f80fd5b5f73ffffffffffffffffffffffffffffffffffffffff82169050919050565b5f6108538261082a565b9050919050565b61086381610849565b811461086d575f80fd5b50565b5f8135905061087e8161085a565b92915050565b5f819050919050565b61089681610884565b81146108a0575f80fd5b50565b5f813590506108b18161088d565b92915050565b5f80604083850312156108cd576108cc610822565b5b5f6108da85828601610870565b92505060206108eb858286016108a3565b9150509250929050565b6108fe81610849565b82525050565b5f81519050919050565b5f82825260208201905092915050565b5f5b8381101561093b578082015181840152602081019050610920565b5f8484015250505050565b5f601f19601f8301169050919050565b5f61096082610904565b61096a818561090e565b935061097a81856020860161091e565b61098381610946565b840191505092915050565b61099781610884565b82525050565b5f6080820190506109b05f8301876108f5565b6109bd60208301866108f5565b81810360408301526109cf8185610956565b90506109de606083018461098e565b95945050505050565b5f80fd5b7f4e487b71000000000000000000000000000000000000000000000000000000005f52604160045260245ffd5b610a2182610946565b810181811067ffffffffffffffff82111715610a4057610a3f6109eb565b5b80604052505050565b5f610a52610819565b9050610a5e8282610a18565b919050565b5f67ffffffffffffffff821115610a7d57610a7c6109eb565b5b602082029050602081019050919050565b5f80fd5b5f80fd5b5f67ffffffffffffffff821115610ab057610aaf6109eb565b5b610ab982610946565b9050602081019050919050565b828183375f83830152505050565b5f610ae6610ae184610a96565b610a49565b905082815260208101848484011115610b0257610b01610a92565b5b610b0d848285610ac6565b509392505050565b5f82601f830112610b2957610b286109e7565b5b8135610b39848260208601610ad4565b91505092915050565b5f610b54610b4f84610a63565b610a49565b90508083825260208201905060208402830185811115610b7757610b76610a8e565b5b835b81811015610bbe57803567ffffffffffffffff811115610b9c57610b9b6109e7565b5b808601610ba98982610b15565b85526020850194505050602081019050610b79565b5050509392505050565b5f82601f830112610bdc57610bdb6109e7565b5b8135610bec848260208601610b42565b91505092915050565b5f805f60608486031215610c0c57610c0b610822565b5b5f610c1986828701610870565b935050602084013567ffffffffffffffff811115610c3a57610c39610826565b5b610c4686828701610bc8565b925050604084013567ffffffffffffffff811115610c6757610c66610826565b5b610c7386828701610b15565b9150509250925092565b5f60208284031215610c9257610c91610822565b5b5f610c9f84828501610870565b91505092915050565b5f81519050919050565b5f82825260208201905092915050565b5f819050602082019050919050565b610cda81610849565b82525050565b5f81519050919050565b5f82825260208201905092915050565b5f819050602082019050919050565b5f82825260208201905092915050565b5f610d2382610904565b610d2d8185610d09565b9350610d3d81856020860161091e565b610d4681610946565b840191505092915050565b5f610d5c8383610d19565b905092915050565b5f602082019050919050565b5f610d7a82610ce0565b610d848185610cea565b935083602082028501610d9685610cfa565b805f5b85811015610dd15784840389528151610db28582610d51565b9450610dbd83610d64565b925060208a01995050600181019050610d99565b50829750879550505050505092915050565b610dec81610884565b82525050565b5f60a083015f830151610e075f860182610cd1565b506020830151610e1a6020860182610cd1565b5060408301518482036040860152610e328282610d70565b91505060608301518482036060860152610e4c8282610d19565b9150506080830151610e616080860182610de3565b508091505092915050565b5f610e778383610df2565b905092915050565b5f602082019050919050565b5f610e9582610ca8565b610e9f8185610cb2565b935083602082028501610eb185610cc2565b805f5b85811015610eec5784840389528151610ecd8582610e6c565b9450610ed883610e7f565b925060208a01995050600181019050610eb4565b50829750879550505050505092915050565b5f6020820190508181035f830152610f168184610e8b565b905092915050565b7f4e487b71000000000000000000000000000000000000000000000000000000005f52602260045260245ffd5b5f6002820490506001821680610f6257607f821691505b602082108103610f7557610f74610f1e565b5b50919050565b7f43616e277420656e646f72736520796f757273656c66000000000000000000005f82015250565b5f610faf60168361090e565b9150610fba82610f7b565b602082019050919050565b5f6020820190508181035f830152610fdc81610fa3565b9050919050565b7f496e76616c6964206164647265737300000000000000000000000000000000005f82015250565b5f611017600f8361090e565b915061102282610fe3565b602082019050919050565b5f6020820190508181035f8301526110448161100b565b9050919050565b5f819050815f5260205f209050919050565b5f6020601f8301049050919050565b5f82821b905092915050565b5f600883026110a77fffffffffffffffffffffffffffffffffffffffffffffffffffffffffffffffff8261106c565b6110b1868361106c565b95508019841693508086168417925050509392505050565b5f819050919050565b5f6110ec6110e76110e284610884565b6110c9565b610884565b9050919050565b5f819050919050565b611105836110d2565b611119611111826110f3565b848454611078565b825550505050565b5f90565b61112d611121565b6111388184846110fc565b505050565b5b8181101561115b576111505f82611125565b60018101905061113e565b5050565b601f8211156111a0576111718161104b565b61117a8461105d565b81016020851015611189578190505b61119d6111958561105d565b83018261113d565b50505b505050565b5f82821c905092915050565b5f6111c05f19846008026111a5565b1980831691505092915050565b5f6111d883836111b1565b9150826002028217905092915050565b6111f182610904565b67ffffffffffffffff81111561120a576112096109eb565b5b6112148254610f4b565b61121f82828561115f565b5f60209050601f831160018114611250575f841561123e578287015190505b61124885826111cd565b8655506112af565b601f19841661125e8661104b565b5f5b8281101561128557848901518255600182019150602085019450602081019050611260565b868310156112a2578489015161129e601f8916826111b1565b8355505b6001600288020188555050505b505050505050565b5f82825260208201905092915050565b5f6112d182610ce0565b6112db81856112b7565b9350836020820285016112ed85610cfa565b805f5b8581101561132857848403895281516113098582610d51565b945061131483610d64565b925060208a019950506001810190506112f0565b50829750879550505050505092915050565b5f6060820190508181035f83015261135281866112c7565b905081810360208301526113668185610956565b9050611375604083018461098e565b94935050505056fea26469706673582212207784de45ba30d9928e8ae385036d0158d2d826176c5c9dfae27226ab96a810f564736f6c63430008140033","linkReferences":{}},"methodIdentifiers":{"endorse(address,string[],string)":"7aa98562","endorsements(address,uint256)":"2cdc9efb","getEndorsements(address)":"b666ca9d"},"id":21}